{
  "contractName": "SimpleContract",
  "abi": [
    {
      "inputs": [],
      "stateMutability": "nonpayable",
      "type": "constructor"
    },
    {
      "inputs": [],
      "name": "lastChanged",
      "outputs": [
        {
          "internalType": "uint256",
          "name": "",
          "type": "uint256"
        }
      ],
      "stateMutability": "view",
      "type": "function"
    },
    {
      "inputs": [],
      "name": "lastChecked",
      "outputs": [
        {
          "internalType": "uint256",
          "name": "",
          "type": "uint256"
        }
      ],
      "stateMutability": "view",
      "type": "function"
    },
    {
      "inputs": [],
      "name": "myNumber",
      "outputs": [
        {
          "internalType": "uint256",
          "name": "",
          "type": "uint256"
        }
      ],
      "stateMutability": "view",
      "type": "function"
    },
    {
      "inputs": [
        {
          "internalType": "uint256",
          "name": "_newNumber",
          "type": "uint256"
        }
      ],
      "name": "changeNumber",
      "outputs": [],
      "stateMutability": "nonpayable",
      "type": "function"
    },
    {
      "inputs": [],
      "name": "checkNumber",
      "outputs": [
        {
          "internalType": "uint256",
          "name": "n",
          "type": "uint256"
        }
      ],
      "stateMutability": "nonpayable",
      "type": "function"
    }
  ],
  "bytecode": "0x608060405234801561001057600080fd5b5060008080554260025560015560f68061002b6000396000f3fe6080604052348015600f57600080fd5b506004361060505760003560e01c806307391dd614605557806323fd0e401460715780634758b9cd146089578063a4e6538f14608f578063e5ada13e146095575b600080fd5b606f60048036036020811015606957600080fd5b5035609b565b005b607760a4565b60408051918252519081900360200190f35b607760aa565b607760b4565b607760ba565b60005542600255565b60005481565b6000544260015590565b60025481565b6001548156fea2646970667358221220f846a409a4bf5a82d54df247c3ba572e6f6b5b11dc11fdb912e99aa09ba47fcd64736f6c63430007000033",
  "immutableReferences": {},
  "source": "pragma solidity 0.7.0; \n\ncontract SimpleContract {\n    uint256 public myNumber; \n    uint256 public lastChecked; \n    uint256 public lastChanged; \n\n    constructor(){\n        myNumber = 0; \n        lastChanged = block.timestamp; \n        lastChecked = 0; \n    }\n\n    function changeNumber(uint256 _newNumber) external {\n        myNumber = _newNumber;\n        lastChanged = block.timestamp;\n    }\n\n    function checkNumber() external returns (uint256 n){\n        n = myNumber; \n        lastChecked = block.timestamp; \n    }\n\n}",
  "sourcePath": "/Users/juanmontero/Projects/DeFi/hegic/simplecontract/contracts/SimpleContract.sol",
  "compiler": {
    "name": "solc",
    "version": "0.7.0+commit.9e61f92b.Emscripten.clang"
  },
  "schemaVersion": "3.2.4",
  "updatedAt": "2020-09-09T16:24:55.114Z",
  "devdoc": {
    "kind": "dev",
    "methods": {},
    "version": 1
  },
  "userdoc": {
    "kind": "user",
    "methods": {},
    "version": 1
  }
}